:020000040000FA
:1000000000B602201D780100C9330700F177010016
:10001000F1770100F1770100F1770100F17701003C
:1000200000000000000000000000000065710100F9
:10003000F177010000000000C1700100F1770100BC
:10004000F9720100F9720100F9720100F972010000
:10005000F9720100F9720100F9720100F9720100F0
:10006000F9720100F9720100F9720100F9720100E0
:10007000F9720100F9720100F9720100F9720100D0
:10008000F9720100F9720100F9720100F9720100C0
:10009000F9720100F9720100F9720100F9720100B0
:1000A000F9720100F9720100F9720100F9720100A0
:1000B000F9720100F9720100F9720100F972010090
:1000C000F9720100F9720100F9720100F972010080
:1000D000F9720100F9720100F9720100F972010070
:1000E000F9720100F9720100F9720100F972010060
:1000F000F97201001D760700F9720100F972010022
:10010000F9720100F9720100F9720100F97201003F
:10011000F9720100F9720100F9720100F97201002F
:10012000F9720100F9720100F9720100F97201001F
:10013000F9720100F9720100F9720100F97201000F
:10014000F9720100F9720100F9720100F9720100FF
:10015000F9720100FFFFFFFF81F0004102E000BFE4
:1001600083F0004330B54FEA41044FEA430594EA77
:10017000050F08BF90EA020F1FBF54EA000C55EAB2
:10018000020C7FEA645C7FEA655C00F0E2804FEA83
:100190005454D4EB5555B8BF6D420CDD2C4480EA65
:1001A000020281EA030382EA000083EA010180EA95
:1001B000020281EA0303362D88BF30BD11F0004FE3
:1001C0004FEA01314FF4801C4CEA113102D0404219
:1001D00061EB410113F0004F4FEA03334CEA133354
:1001E00002D0524263EB430394EA050F00F0A7806C
:1001F000A4F10104D5F1200E0DDB02FA0EFC22FA67
:1002000005F2801841F1000103FA0EF2801843FA5A
:1002100005F359410EE0A5F120050EF1200E012A4B
:1002200003FA0EFC28BF4CF0020C43FA05F3C01889
:1002300051EBE37101F0004507D54FF0000EDCF102
:10024000000C7EEB00006EEB0101B1F5801F1BD3AB
:10025000B1F5001F0CD349085FEA30004FEA3C0CAF
:1002600004F101044FEA445212F5800F80F09A80A5
:10027000BCF1004F08BF5FEA500C50F1000041EBA9
:10028000045141EA050130BD5FEA4C0C404141EBAD
:100290000101013C28BFB1F5801FE9D291F0000FA8
:1002A00004BF01460020B1FA81F308BF2033A3F157
:1002B0000B03B3F120020CDA0C3208DD02F1140C4E
:1002C000C2F10C0201FA0CF021FA02F10CE002F189
:1002D0001402D8BFC2F1200C01FA02F120FA0CFC82
:1002E000DCBF41EA0C019040E41AA2BF01EB0451CB
:1002F000294330BD6FEA04041F3C1CDA0C340EDCC9
:1003000004F11404C4F1200220FA04F001FA02F30B
:1003100040EA030021FA04F345EA030130BDC4F1C9
:100320000C04C4F1200220FA02F001FA04F340EABE
:100330000300294630BD21FA04F0294630BD94F06F
:10034000000F83F4801306BF81F480110134013D56
:100350004EE77FEA645C18BF7FEA655C29D094EAC7
:10036000050F08BF90EA020F05D054EA000C04BF45
:100370001946104630BD91EA030F1EBF0021002030
:1003800030BD5FEA545C05D14000494128BF41F0CF
:10039000004130BD14F580043CBF01F5801130BD33
:1003A00001F0004545F0FE4141F470014FF00000BE
:1003B00030BD7FEA645C1ABF194610467FEA655C6F
:1003C0001CBF0B46024650EA013406BF52EA033511
:1003D00091EA030F41F4002130BD00BF90F0000FFF
:1003E00004BF0021704730B54FF4806404F132043B
:1003F0004FF000054FF0000150E700BF90F0000FF4
:1004000004BF0021704730B54FF4806404F132041A
:1004100010F0004548BF40424FF000013EE700BFEA
:1004200042004FEAE2014FEA31014FEA02701FBF7A
:1004300012F07F4393F07F4F81F06051704732F0AC
:100440007F4208BF704793F07F4F04BF41F4002103
:10045000704730B54FF4607401F0004521F0004161
:100460001CE700BF50EA010208BF704730B54FF0EB
:1004700000050AE050EA010208BF704730B511F0EC
:10048000004502D5404261EB41014FF4806404F124
:1004900032045FEA915C3FF4D8AE4FF003025FEAAA
:1004A000DC0C18BF03325FEADC0C18BF033202EB2E
:1004B000DC02C2F1200300FA03FC20FA02F001FA88
:1004C00003FE40EA0E0021FA02F11444BDE600BF2B
:1004D0004FF0FF3C06E000BF4FF0010C02E000BF10
:1004E0004FF0010C4DF804CD4FEA410C7FEA6C5CF3
:1004F0004FEA430C18BF7FEA6C5C1BD001B050EA96
:10050000410C0CBF52EA430C91EA030F02BF90EA80
:10051000020F0020704710F1000F91EA030F58BF3F
:10052000994208BF90422CBFD8176FEAE37040F0A1
:10053000010070474FEA410C7FEA6C5C02D150EA3F
:10054000013C07D14FEA430C7FEA6C5CD6D152EAFA
:10055000033CD3D05DF8040B704700BF84461046BF
:1005600062468C461946634600E000BF01B5FFF7BE
:10057000B7FF002848BF10F1000F01BD4DF808ED8E
:10058000FFF7F4FF0CBF012000205DF808FB00BF5F
:100590004DF808EDFFF7EAFF34BF012000205DF8B9
:1005A00008FB00BF4DF808EDFFF7E0FF94BF012006
:1005B00000205DF808FB00BF4DF808EDFFF7CEFF07
:1005C00094BF012000205DF808FB00BF4DF808ED46
:1005D000FFF7C4FF34BF012000205DF808FB00BF17
:1005E0007BB972B90029BEBF00204FF0004106E080
:1005F00008BF00281CBF6FF000414FF0FF3000F033
:1006000057B8ADF1080C6DE904CE002909DB002BC9
:100610001ADB02F07BFBDDF804E0DDE9022304B025
:100620007047404261EB4101002B1BDB02F06EFB87
:10063000DDF804E0DDE9022304B0404261EB410152
:10064000524263EB43037047524263EB430302F0B1
:100650005DFBDDF804E0DDE9022304B0404261EB1C
:1006600041017047524263EB430302F04FFBDDF858
:1006700004E0DDE9022304B0524263EB4303704718
:1006800053B94AB9002908BF00281CBF4FF0FF31F9
:100690004FF0FF3000F00CB8ADF1080C6DE904CE5E
:1006A00002F034FBDDF804E0DDE9022304B070471A
:1006B000704700BF2DE9F14F03F11C0402EB840CDD
:1006C0004FEA930B8A68CB680868496800F046F9DE
:1006D0003CE9F0006040694072407B400BF1060E3F
:1006E0004EE083EA134480EA134582EA134746BA90
:1006F00096EA3444604000F00F1684EA063420F095
:100700000F1684EA161054BA94EA0106724002F0F9
:100710000F1486EA043622F00F1486EA14124CBA3B
:100720006540694001F00F1485EA043521F00F148B
:1007300085EA14115CBA67407B4003F00F1487EA26
:10074000043723F00F1487EA141344BA44404DBA17
:100750004D4056BA56405FBA5F4087EA174886EA6E
:10076000174B84EA17464FEA38488BEA1B4485EA60
:100770001B4788EA1B4580EA3440694072407B4051
:1007800000F0703400F0803500F00F3040EA440093
:1007900040EAD50080EA900404F0332480EA840023
:1007A000604001F0703401F0803501F00F3141EA12
:1007B000440141EAD50181EA910404F0332481EA3D
:1007C0008401614002F0703402F0803502F00F3293
:1007D00042EA440242EAD50282EA920404F0332457
:1007E00082EA8402624003F0703403F0803503F043
:1007F0000F3343EA440343EAD50383EA930404F046
:10080000332483EA84036340C943DB4381EA000461
:1008100083EA044686EA020183EA014382EA334519
:1008200083EA14435C4084EA00077FEA040A8AEA08
:10083000024A8AEA010B87EA11488AEA374A80EAC3
:10084000060181EA1A418AEA030A04EA0A004540DD
:1008500088EA040707EA0B0041408AEA0B0608EA27
:10086000060084EA34428AEA3A4602EA060358401D
:100870004540414087EA37438BEA3B4003EA0009A1
:1008800085EA090582EA0309464006EA090671403D
:1008900085EA010005EA3546464006EA314181EA2B
:1008A000304181EA364606EA304686EA354634402B
:1008B0000F4086EA010508EA050886EA364002404C
:1008C00088EA020881EA314213405C4080EA020370
:1008D00009EA030987EA0907674088EA040806EA83
:1008E0000A0601EA0B018AEA0B0425408AEA3A4427
:1008F000204045408BEA3B4B02EA0B02564084EA1B
:100900000B04234059406E40694087EA364080EA34
:10091000384080EA060380EA104481EA134585EAFC
:10092000344585EA17427D4082EA354180EA054038
:100930003CE9F0006040694072407B40BEF1010E2E
:100940003FF6CFAE20BC00F05FF828606960AA6077
:10095000EB60BDE8F08F00BF00F000BA80EA101431
:1009600004F0F01480EA0410604081EA111404F0ED
:10097000F01481EA0411614082EA121404F0F014C8
:1009800082EA0412624083EA131404F0F01483EA4A
:100990000413634080EA102404F47F4480EA0420B6
:1009A000604081EA112404F47F4481EA042161401B
:1009B00082EA122404F47F4482EA0422624083EA39
:1009C000132404F47F4483EA0423634081EA50043F
:1009D00004F0553480EA4400614083EA520404F094
:1009E000553482EA4402634082EA900404F03334CE
:1009F00080EA8400624083EA910404F0333481EA9F
:100A000084016340704700BF82EA900404F03334ED
:100A100080EA8400624083EA910404F0333481EA7E
:100A20008401634081EA500404F0553480EA4400B4
:100A3000614083EA520404F0553482EA4402634080
:100A400080EA102404F47F4480EA0420604081EAB4
:100A5000112404F47F4481EA0421614082EA1224D3
:100A600004F47F4482EA0422624083EA132404F4FB
:100A70007F4483EA0423634080EA101404F0F014F6
:100A800080EA0410604081EA111404F0F01481EA55
:100A90000411614082EA121404F0F01482EA041294
:100AA000624083EA131404F0F01483EA04136340F1
:100AB000704700BF2DE9F14F94464FEA930B8A68C7
:100AC000CB6808684968FFF749FF0BF1060E33E071
:100AD00083EA134480EA134582EA134746BA96EA4A
:100AE0003444604000F00F1684EA063420F00F16FC
:100AF00084EA161054BA94EA0106724002F00F1408
:100B000086EA043622F00F1486EA14124CBA6540C5
:100B1000694001F00F1485EA043521F00F1485EACD
:100B200014115CBA67407B4003F00F1487EA043766
:100B300023F00F1487EA1413BCE8F000604069400A
:100B400072407B4000F0E03400F0103500F00F30D0
:100B500040EA540040EAC50080EA900404F03324DF
:100B600080EA8400604001F0E03401F0103501F0CB
:100B70000F3141EA540141EAC50181EA910404F0D0
:100B8000332481EA8401614002F0E03402F0103540
:100B900002F00F3242EA540242EAC50282EA9204AB
:100BA00004F0332482EA8402624003F0E03403F06C
:100BB000103503F00F3343EA540343EAC50383EAD5
:100BC000930404F0332483EA8403634081EA3247C8
:100BD00087EA134581EA354690EA060484EA034B26
:100BE00082EA1B4280EA044484EA054483EA144A08
:100BF00085EA14448BEA044B84EA374481EA0B41CA
:100C000081EA164104EA0A00454082EA04082BEA18
:100C1000080041408AEA0B0602EA060084EA3443EF
:100C20008AEA3A4603EA060778404540414088EAA6
:100C300038478BEA3B4007EA000985EA090583EA61
:100C40000709464006EA0906714085EA010005EAFF
:100C50003546464006EA314181EA304181EA36466E
:100C600006EA304686EA3546344008EA010886EA54
:100C700001052A4086EA364003405A4081EA314362
:100C80001F407C4080EA030709EA070988EA09084F
:100C9000544088EA020806EA0A0601EA0B018AEAD9
:100CA0000B0215408AEA3A42104045408BEA3B402D
:100CB00003405E404240174079404D404E40E4437F
:100CC000F64386EA18435D4085EA054083EA13430C
:100CD00086EA034183EA384284EA114383EA044303
:100CE0005FEA3343BEF1010E3FF6F2AE1ED4BCE81C
:100CF000F0006040694072407B4020BCFFF784FEFA
:100D000028606960AA60EB60BDE8F08F2DE9E041E2
:100D10004FF2F00280EA1031114080EA0130484081
:100D200041088208C3084FF0000E4FE700F0113071
:100D300001F0113102F0113203F0113340EA4100A9
:100D400040EA820040EAC3004FF2F00280EA10312C
:100D5000114080EA01304840BDE8E0812DE9F04FC4
:100D600002F11C050646074600EB850851F8040B06
:100D7000043A46F8040BF9D14FF0010CFFF7C6FF17
:100D80005FEA302080EA0C001ECF41404A405340C9
:100D90005C401EC62000464517D04FEA4C0C1CF4A0
:100DA000807F18BFACF1E50C2C2DE7D03C2D06D18F
:100DB000FFF7ACFF06CF41404A4006C6100006CF01
:100DC00041404A4006C61000D8E736E90F00FFF759
:100DD000C5FD043D86E80F00F7D1BDE8F08F00BFE8
:100DE0002DE9F00391E8F801B2E802125B1854EB28
:100DF000090455EB0C05B2E802124E4157EB090706
:100E000058EB0C0880E8F80180410130BDE8F003A0
:100E1000704700BF2DE9F00391E8F801B2E8021233
:100E20005B1A74EB090475EB0C05B2E802128E41F3
:100E300077EB090778EB0C0880E8F8018041404225
:100E4000BDE8F003704700BF2DE9F001524290E881
:100E50003800B1E8C00116409B1917407C4118EAE0
:100E6000020855EB080538C090E8380091E8C00149
:100E70001640734117407C4118EA020855EB0805FB
:100E800038C080410130BDE8F00170472DE9F00124
:100E9000524290E83800B1E8C00116409B1B174051
:100EA000BC4118EA020875EB080538C090E8380024
:100EB00091E8C0011640B3411740BC4118EA02084E
:100EC00075EB080538C080414042BDE8F00170472D
:100ED0002DE9F00152424FF0030890E8300091E80C
:100EE000C000A31B1340E41AF618EB1B1340ED1AC5
:100EF000FF1830C0C0C1B8F10108EED1BDE8F00163
:100F0000704700BFD2EC060AB1E8001E91EC026AFD
:100F100055EC304A57EC316AA9FB0412AAFB0403D2
:100F2000E9FB6520EBFB643042EC141AAAFB0521B7
:100F3000ECFB6401E9FB6632EAFB6602EBFB66123E
:100F400005EE103AA9FB0743EAFB6713EBFB6723A7
:100F500012EE908AEBFB6504ECFB6514EAFB682457
:100F6000EBFB6834A9FB086513EE108AE9FB6825E2
:100F7000EAFB6835EBFB684510EE909A5BEC16AA2D
:100F8000EAFB6916EBFB6926ECFB6736EAFB674672
:100F9000EBFB675611EE109AAAFB0987EBFB69374A
:100FA00012EE909AECFB6947EAFB6957EBFB696725
:100FB00011EE909AECFB6928EAFB6938EBFB694873
:100FC00013EE109AECFB6958EAFB6968EBFB697851
:100FD000704700BF2DE9F04F07EE900AFFF792FF30
:100FE00017EE909AA9EC034A89E8FF01BDE8F08F5B
:100FF00091E8801FA7FB0712A8FB0703E7FB682007
:10100000E7FB693042EC141AA7FB0921E7FB6A01F0
:10101000E8FB6832E7FB6A02E7FB6B1205EE103A69
:10102000A8FB0943E7FB6B13E7FB6C23E8FB6904B0
:10103000E8FB6A14E7FB6C24E8FB6C34A8FB0A6548
:10104000E8FB6B25E8FB6C35E9FB6C45E9FB6916B1
:10105000E8FB6B26E9FB6B36E9FB6C46EAFB6C565A
:10106000A9FB0A87E9FB6B37EAFB6B47EAFB6C5786
:10107000EBFB6C67E9FB6A28EAFB6A38EAFB6B4822
:10108000EBFB6B58EBFB6C68ECFB6C78704700BFBC
:101090002DE9F04F07EE900AFFF7AAFF17EE909A9E
:1010A000A9EC034A89E8FF01BDE8F08F2DE9F003C0
:1010B00091E8F803B2E802105B1854EB0C04B2E8B4
:1010C00002104D4156EB0C0692E806104F4158EBCA
:1010D000020859EB0C0980E8F80380410130BDE8B3
:1010E000F00370472DE9F00391E8F803B2E802102D
:1010F0005B1A74EB0C04B2E802108D4176EB0C061F
:1011000092E806108F4178EB020879EB0C0980E831
:10111000F80380414042BDE8F00370472DE9F00339
:10112000524290E83800B1E880031740DB1918EA12
:10113000020854EB080419EA020955EB090538C006
:1011400090E8780091E8820311404B4117407C41C0
:1011500018EA020855EB080519EA020956EB0906D8
:1011600078C080410130BDE8F00370472DE9F003FD
:10117000524290E83800B1E880031740DB1B18EAC0
:10118000020874EB080419EA020975EB090538C076
:1011900090E8780091E8820311408B411740BC41F0
:1011A00018EA020875EB080519EA020976EB090648
:1011B00078C080414042BDE8F00370472DE9F0015E
:1011C00052424FF0030890E8300091E8C000A31BA2
:1011D0001340E41AF618EB1B1340ED1AFF1830C049
:1011E000C0C1B8F10108EED104680E68A31B13401A
:1011F000E41AF61804600E60BDE8F001704700BF05
:1012000000B592EC070AB1E8005E07EE101A56EC42
:10121000102A58EC117AA9FB0250AAFB0234E9FB10
:101220006603EBFB624340EC145AAAFB0605ECFB99
:101230006235E9FB6740E9FB6830EEFB6250AAFBD0
:101240000721EAFB6851EBFB680112EE108AEBFB09
:101250006632ECFB6652EAFB6802EBFB681243EC79
:10126000154AA9FB084312EE908AE9FB6803EAFBE2
:101270006813EBFB6823EBFB6754EEFB660413EE8D
:10128000108AE9FB6814EAFB6824EBFB683406EE7D
:10129000105A17EE109A99E8000CACFB076511EE96
:1012A000909AECFB6915EEFB6925EAFB6935EBFBCF
:1012B000694510EE109AEAFB6906EBFB691612EE1F
:1012C000109AECFB6926EEFB6936EAFB6946EBFBFC
:1012D000695610EE909AAAFB0987EBFB692712EE7C
:1012E000909AECFB6937EEFB6947EAFB6957EBFB29
:1012F000696711EE109AEEFB6918EAFB6928EBFBAF
:10130000693813EE109AECFB6948EEFB6958EAFB6A
:101310006968EBFB697800BD2DE9F04F07EE900A94
:10132000FFF76EFF17EE909AA9EC054A89E8FF01D6
:10133000BDE8F08F00B591E8805FA7FB0750A7FBE1
:101340000834E7FB6803E7FB694340EC145AA7FB4A
:101350000905E7FB6A35E8FB6840E7FB6A30E7FB15
:101360006B50A8FB0921E7FB6B51E7FB6C01E8FB25
:101370006932E8FB6A52E7FB6C02E7FB6E1243EC52
:10138000154AA8FB0A43E8FB6B03E7FB6E13E8FB77
:101390006E23E9FB6954E8FB6B04E8FB6C14E8FB83
:1013A0006E24E9FB6E3406EE105AA9FB0A65E8FBD1
:1013B0006C15E9FB6C25E9FB6E35EAFB6E45E9FB34
:1013C0006A06E9FB6B16E9FB6C26EAFB6C36EAFB66
:1013D0006E46EBFB6E56A9FB0B87EAFB6B27EAFB1D
:1013E0006C37EBFB6C47EBFB6E57ECFB6E67EAFB75
:1013F0006A18EAFB6B28EBFB6B38EBFB6C48ECFBE9
:101400006C58ECFB6E68EEFB6E7800BD2DE9F04F7A
:1014100007EE900AFFF78EFF17EE909AA9EC054AA7
:1014200089E8FF01BDE8F08F2DE9F00791E8F807A2
:10143000B2E802105B1854EB0C04B2E802104D4104
:1014400056EB0C06B2E802104F4158EB0C08B2E81C
:10145000021059EB01095AEB0C0A80E8F8078041A9
:101460000130BDE8F00770472DE9F00791E8F80773
:10147000B2E802105B1A74EB0C04B2E802108D4162
:1014800076EB0C06B2E802108F4178EB0C08B2E85C
:10149000021079EB01097AEB0C0A80E8F807804129
:1014A0004042BDE8F00770472DE9F007524290E84E
:1014B0007800B1E880071740DB1918EA020854EBFE
:1014C000080419EA020955EB09051AEA020A56EB63
:1014D0000A0678C090E87800B1E8800717407B41A1
:1014E00018EA020854EB080419EA020955EB090549
:1014F0001AEA020A56EB0A0678C080410130BDE8BC
:10150000F00770472DE9F007524290E87800B1E803
:1015100080071740DB1B18EA020874EB080419EA7D
:10152000020975EB09051AEA020A76EB0A0678C089
:1015300090E87800B1E880071740BB4118EA02083C
:1015400074EB080419EA020975EB09051AEA020AA4
:1015500076EB0A0678C080414042BDE8F00770474C
:101560002DE9F00152424FF0040890E8300091E874
:10157000C000A31B1340E41AF618EB1B1340ED1A2E
:10158000FF1830C0C0C1B8F10108EED1BDE8F001CC
:10159000704700BF00B592EC080AB1E8805707EE2B
:1015A000101A53EC102A56EC114AA7FB0251A8FB63
:1015B000020BE7FB6310E9FB62B041EC145AA8FB95
:1015C0000351EAFB6201E7FB64B5E7FB6605E8FB54
:1015D000661505EE10BAA9FB03B6EAFB6316ECFB31
:1015E0006356E8FB640BE9FB641BEAFB645BECFB02
:1015F000646B05EE900AACFB023012EE104AEEFB73
:101600006250E9FB6460EAFB64B0E7FB6431E8FB2D
:10161000645112EE904AE8FB6461E9FB64B1EAFBB5
:10162000640106EE103AA7FB043213EE104AE7FB02
:101630006462E8FB64B2E9FB6402EAFB641211EE47
:10164000904AE9FB6453EAFB646313EE904AE7FBBC
:1016500064B3E8FB6403E9FB6413EAFB642306EE6E
:10166000905A17EE109A99E8000610EE108AA9FB1E
:101670000854EAFB68B412EE108AECFB6804EEFB37
:101680006814E9FB6824EAFB683410EE908AEEFBEC
:101690006865E9FB68B5EAFB680512EE908AECFB29
:1016A0006815EEFB6825E9FB6835EAFB684507EE3F
:1016B000106A11EE108AAEFB0876E9FB6806EAFBB9
:1016C000681613EE108AECFB6826EEFB6836E9FB21
:1016D0006846EAFB685611EE908AECFB68B7EEFBB1
:1016E0006807E9FB6817EAFB682713EE908AECFBB2
:1016F0006837EEFB6847E9FB6857EAFB686700BD9F
:101700002DE9F04F07EE900AFFF744FF17EE908A9D
:1017100007EE90BAA8EC084A88E8FF00BDE8F08F11
:1017200000B591E89857A3FB0352A3FB0401E3FB28
:101730006420E3FB671042EC145AA3FB0752E3FB5F
:101740006802E4FB6415E3FB6805E3FB6925A4FB81
:1017500007B6E3FB6926E3FB6A56E4FB670BE4FB91
:10176000682BE3FB6A5BE3FB6C6B40EC151AA4FB94
:101770000810E4FB6950E3FB6C60E3FB6EB0E7FB31
:101780006721E4FB6951E4FB6A61E3FB6EB1E4FBB2
:101790006E0106EE102AA7FB0832E4FB6A62E4FB46
:1017A0006CB2E4FB6E02E7FB6E12E7FB6853E7FBEB
:1017B0006963E4FB6CB3E7FB6C03E7FB6E13E8FBC8
:1017C0006E2306EE905AA7FB0954E7FB6AB4E7FBC9
:1017D0006C04E8FB6C14E8FB6E24E9FB6E34E8FB58
:1017E0006865E7FB6AB5E8FB6A05E8FB6C15E9FB91
:1017F0006C25E9FB6E35EAFB6E4507EE106AA8FB27
:101800000976E8FB6A06E9FB6A16E9FB6C26EAFB47
:101810006C36EAFB6E46ECFB6E56E8FB69B7E9FBFB
:101820006907E9FB6A17EAFB6A27EAFB6C37ECFBFE
:101830006C47ECFB6E57EEFB6E6700BD2DE9F04F79
:1018400007EE900AFFF76CFF17EE908A07EE90BA4A
:10185000A8EC084A88E8FF00BDE8F08F2DE9F00FFA
:10186000B1E8F801B2E8001E13EB090354EB0A04D7
:1018700055EB0B0556EB0C06B2E8001E57EB0907BB
:1018800058EB0A08A0E8F80191E8F80153EB0B03C4
:1018900054EB0C0492E8001E55EB090556EB0A06C2
:1018A00057EB0B0758EB0C0880E8F801804101303A
:1018B000BDE8F00F704700BF2DE9F00FB1E8F80167
:1018C000B2E8001EB3EB090374EB0A0475EB0B05D9
:1018D00076EB0C06B2E8001E77EB090778EB0A08F6
:1018E000A0E8F80191E8F80173EB0B0374EB0C042A
:1018F00092E8001E75EB090576EB0A0677EB0B07FD
:1019000078EB0C0880E8F80180414042BDE8F00F18
:10191000704700BF2DE9F007524290E87800B1E827
:1019200080071740DB1918EA020854EB080419EA8B
:10193000020955EB09051AEA020A56EB0A0678C0B5
:1019400090E87800B1E8800717407B4118EA020868
:1019500054EB080419EA020955EB09051AEA020AD0
:1019600056EB0A0678C090E87800B1E88007174087
:101970007B4118EA020854EB080419EA020955EB06
:1019800009051AEA020A56EB0A0678C080410130BE
:10199000BDE8F007704700BF2DE9F007524290E81C
:1019A0007800B1E880071740DB1B18EA020874EBE7
:1019B000080419EA020975EB09051AEA020A76EB2E
:1019C0000A0678C090E87800B1E880071740BB416C
:1019D00018EA020874EB080419EA020975EB090514
:1019E0001AEA020A76EB0A0678C090E87800B1E8B5
:1019F00080071740BB4118EA020874EB080419EA93
:101A0000020975EB09051AEA020A76EB0A0678C0A4
:101A100080414042BDE8F007704700BF2DE9F0016A
:101A200052424FF0060890E8300091E8C000A31B36
:101A30001340E41AF618EB1B1340ED1AFF1830C0E0
:101A4000C0C1B8F10108EED1BDE8F001704700BF98
:101A500000B5D2EC0C0A41EC170A0FC910EE909AAF
:101A60005BEC11AA5EEC12CAA0FB0967A1FB095846
:101A7000E0FB6A75E2FB698517EE104AC4E900676E
:101A8000A1FB0A76E3FB6956E0FB6B87E1FB6B5732
:101A9000E2FB6B67C4F80880A0FB0C98E1FB6C6864
:101AA000E2FB6C78E2FB6A59E3FB6A69E1FB6E7961
:101AB000E2FB6E89E560A0FB0EBA13EE10EAE0FBD4
:101AC0006E7AE1FB6E8AE2FB6E9A17EE904AD4E9D9
:101AD000044510EE90EAE4FB6E6BE5FB6E7BE3FBE6
:101AE0006C8BE4FB6C9BE5FB6CAB17EE10EACEF85D
:101AF000106011EE106AA4FB06ECE5FB668C12EE9A
:101B0000906AE3FB669CE4FB66ACE5FB66BC11EE09
:101B1000906AE3FB667EE4FB668EE5FB669E13EE51
:101B2000106AE3FB66AEE4FB66BEE5FB66CE17EE2D
:101B3000104A04F1140484E8805F13EE905A57ECC5
:101B4000146A59EC158AA0FB05CEA1FB05BAE0FB8F
:101B500066EBE2FB65AB2DE90050A1FB06ECE3FB75
:101B600065BCE0FB67AEE1FB67BEE2FB67CEA0FBB6
:101B70000854E1FB68C4E2FB68E4E2FB66B5E3FB02
:101B800066C5E1FB69E5E2FB6945A0FB097616EE57
:101B9000109AE0FB69E6E1FB6946E2FB695617EE45
:101BA000902AD2E9041213EE909AE1FB69C7E2FB96
:101BB00069E7E3FB6847E1FB6857E2FB686714EEFF
:101BC000100AA1FB0098E2FB604815EE900AE3FBC7
:101BD0006058E1FB6068E2FB607814EE900AE3FB7A
:101BE00060E9E1FB6049E2FB605916EE100AE3FB95
:101BF0006069E1FB6079E2FB608917EE100A00F191
:101C0000300181E8F0038769BDE8000317EE900A10
:101C100000F118003FC810EE906AE0FB6687E1FB18
:101C20006697E2FB66A7E3FB66B7E4FB66C7E5FBE6
:101C300066E717EE106AC6F81880D6F81C8011EE19
:101C4000106AE0FB6698E1FB66A8E2FB66B8E3FB7E
:101C500066C8E4FB66E8E5FB667817EE106AC6F82E
:101C60001C90D6F8209011EE906AE0FB66A9E1FB8B
:101C700066B9E2FB66C9E3FB66E9E4FB6679E5FB6E
:101C8000668917EE106AC6F820A0D6F824A012EED6
:101C9000106AE0FB66BAE1FB66CAE2FB66EAE3FBB8
:101CA000667AE4FB668AE5FB669A17EE106AC6F868
:101CB00024B0D6F828B012EE906AE0FB66CBE1FBC8
:101CC00066EBE2FB667BE3FB668BE4FB669BE5FB76
:101CD00066AB17EE106AC6F828C0D6F82CC013EE13
:101CE000106AE0FB66ECE1FB667CE2FB668CE3FBE2
:101CF000669CE4FB66ACE5FB66BC17EE106AC6F8B2
:101D00002CE0366B13EE90EAE0FB6E76E1FB6E861C
:101D1000E2FB6E96E3FB6EA6E4FB6EB6E5FB6EC6D9
:101D200017EE10EACEF83070DEF8347014EE10EAD8
:101D3000E0FB6E87E1FB6E97E2FB6EA7E3FB6EB7FD
:101D4000E4FB6EC7E5FB6E6717EE10EACEF8348051
:101D5000DEF8388014EE90EAE0FB6E98E1FB6EA8A6
:101D6000E2FB6EB8E3FB6EC8E4FB6E68E5FB6E78E1
:101D700017EE10EACEF83890DEF83C9015EE10EA37
:101D8000E0FB6EA9E1FB6EB9E2FB6EC9E3FB6E6995
:101D9000E4FB6E79E5FB6E8917EE10EACEF83CA005
:101DA000DEF840A015EE90EAE0FB6EBAE1FB6ECAE9
:101DB000E2FB6E6AE3FB6E7AE4FB6E8AE5FB6E9AE9
:101DC00017EE10EACEF840B0DEF844B016EE10EA96
:101DD000E0FB6ECBE1FB6E6BE2FB6E7BE3FB6E8B9D
:101DE000E4FB6E9BE5FB6EAB17EE100AC0F844C037
:101DF00000BD00BF2DE9F14FFFF72AFE5DF804CBCF
:101E00000CF1480C8CE8C00FBDE8F08F00B5D1ECA8
:101E10000C0A07EE100A51EC300A53EC312A55EC4B
:101E2000324AA0FB0089A1FB00BAE0FB619BE2FB08
:101E300060AB17EE106AE6E80289A1FB017CE3FBC8
:101E400060BCE0FB62A7E1FB62B7E2FB62C7A0FBFC
:101E50000398E1FB63C8E2FB6378E2FB61B9E3FB53
:101E600061C9E1FB6479E2FB6489E6E802ABA0FBAF
:101E700004BAE0FB657AE1FB658AE2FB659AE4FB64
:101E800060CBE5FB607BE3FB638BE4FB639BE5FBE3
:101E900063AB46F804CBA4FB01ECE5FB618CE3FBF0
:101EA000649CE4FB64ACE5FB64BCE3FB627EE4FBA6
:101EB000628EE5FB629EE3FB65AEE4FB65BEE5FB7F
:101EC00065CE86E8805F13EE905A57EC146A59ECA1
:101ED000158AA0FB05CEA1FB05BAE0FB66EBE2FB91
:101EE00065AB2DE90050A1FB06ECE3FB65BCE0FB14
:101EF00067AEE1FB67BEE2FB67CEA0FB0854E1FBE7
:101F000068C4E2FB68E4E2FB66B5E3FB66C5E1FB9F
:101F100069E5E2FB6945A0FB097616EE109AE0FB45
:101F200069E6E1FB6946E2FB695652EC321A13EEB0
:101F3000900AE1FB60C7E2FB60E7E3FB6847E1FB77
:101F40006857E2FB686714EE100AA1FB0098E2FBF9
:101F5000604815EE900AE3FB6058E1FB6068E2FB25
:101F6000607814EE900AE3FB60E9E1FB6049E2FB74
:101F7000605916EE100AE3FB6069E1FB6079E2FB51
:101F8000608917EE100A00F1300181E8F0038769DB
:101F9000BDE8000351EC330A53EC342A55EC354AC2
:101FA00010EE906AE0FB6687E1FB6697E2FB66A7AE
:101FB000E3FB66B7E4FB66C7E5FB66E717EE106A6E
:101FC000C6F81880D6F81C8011EE106AE0FB6698FF
:101FD000E1FB66A8E2FB66B8E3FB66C8E4FB66E8E3
:101FE000E5FB667817EE106AC6F81C90D6F82090CC
:101FF00011EE906AE0FB66A9E1FB66B9E2FB66C9F7
:10200000E3FB66E9E4FB6679E5FB668917EE106A97
:10201000C6F820A0D6F824A012EE106AE0FB66BA3B
:10202000E1FB66CAE2FB66EAE3FB667AE4FB668AEA
:10203000E5FB669A17EE106AC6F824B0D6F828B009
:1020400012EE906AE0FB66CBE1FB66EBE2FB667B9F
:10205000E3FB668BE4FB669BE5FB66AB17EE106A61
:10206000C6F828C0D6F82CC013EE106AE0FB66EC68
:10207000E1FB667CE2FB668CE3FB669CE4FB66AC02
:10208000E5FB66BC17EE106AC6F82CE0366BE0FB89
:102090006076E1FB6086E2FB6096E3FB60A6E4FB12
:1020A00060B6E5FB60C617EE10EACEF83070DEF8D9
:1020B0003470E0FB6187E1FB6197E2FB61A7E3FB22
:1020C00061B7E4FB61C7E5FB6167CEF83480DEF8F9
:1020D0003880E0FB6298E1FB62A8E2FB62B8E3FBB8
:1020E00062C8E4FB6268E5FB6278CEF83890DEF8FF
:1020F0003C90E0FB63A9E1FB63B9E2FB63C9E3FB4E
:102100006369E4FB6379E5FB6389CEF83CA0DEF804
:1021100040A0E0FB64BAE1FB64CAE2FB646AE3FB53
:10212000647AE4FB648AE5FB649ACEF840B0DEF89A
:1021300044B0E0FB65CBE1FB656BE2FB657BE3FB59
:10214000658BE4FB659BE5FB65ABCEF844C000BD49
:102150002DE9F14FFFF75AFE5DF804CB0CF1480C66
:102160008CE8C00FBDE8F08F30B44FF0000310F8DA
:10217000014B11F8015B013A84EA050443EA0403C8
:10218000F5D1A3F101034FEAD37030BC704700BF13
:102190004FF0000310F8012B013943EA0203F9D193
:1021A000A3F101034FEAD370704700BF30B411F8B8
:1021B000014B12F8015B6C4000F8014B013BF6D17A
:1021C00030BC70472DE9F00791E8F807B2E802103B
:1021D0005B1854EB0C04B2E802104D4156EB0C06B0
:1021E000B2E802104F4158EB0C08B2E8021059EB6C
:1021F00001095AEB0C0A4FF0260261EB010122EAB9
:1022000001015B1854F1000455F1000556F1000678
:1022100057F1000758F1000859F100095AF1000A76
:1022200061EB010122EA01010B4480E8F807BDE8F7
:10223000F00770472DE9F00791E8F807B2E80210BF
:102240005B1A74EB0C04B2E802108D4176EB0C06BD
:10225000B2E802108F4178EB0C08B2E8021079EB7B
:1022600001097AEB0C0A4FF0260261EB010102EA48
:1022700001015B1A74F1000475F1000576F10006A6
:1022800077F1000778F1000879F100097AF1000A86
:1022900061EB010102EA0101A3EB010380E8F80709
:1022A000BDE8F007704700BF2DE9F04F07EE900A38
:1022B000FFF770F94FF0260C59EC148A4FF0000A22
:1022C000E0FB0C8AE1FB6C9A51EC150AE2FB6CA076
:1022D000E3FB6C0153EC162AE4FB6C12E5FB6C2368
:1022E0005EEC174AE6FB6C34E7FB6CB40CFB04F4C1
:1022F00018EB040459F100055AF1000650F10007EB
:1023000051F1000852F1000953F1000A5BF1000B92
:1023100060EB00002CEA000004448EE8F00FBDE8FA
:10232000F08F00BF2DE9F04F07EE900AFFF7F8F9A4
:10233000C0E700BF2DE9F00391E8F8134FF4EE3148
:10234000BF390022E3FB6123E4FB6134E5FB614517
:10235000E6FB6156E7FB6167E8FB6178E9FB6189B1
:10236000ECFB619C4FF0260101FB0CFC12EB0C0214
:1023700053F1000354F1000455F1000556F1000635
:1023800057F1000758F1000859F100096CEB0C0CEB
:1023900021EA0C010A4480E8FC03BDE8F003704721
:1023A0002DE9F00390E8F8134FEAEC7202F0130203
:1023B0002CF0004C02F11301591854F1000155F1B1
:1023C000000156F1000157F1000158F1000159F1E7
:1023D00000015CF100014FEAE17101F013011144C9
:1023E0005B1854F1000455F1000556F1000657F151
:1023F000000758F1000859F100094CF1000C2CF0CD
:10240000004C80E8F813BDE8F00370472DE9F003B5
:1024100091E8F803B2E802105B1854EB0C04B2E840
:1024200002104D4156EB0C0692E806104F4158EB56
:10243000020859EB0C098941013B74F1000475F164
:10244000000576F1FF3677F1FF3778F1FF3879F143
:10245000FF3951F1000113EBD17354F1000455F130
:1024600000054E414F4158EB010859EB010980E846
:10247000F803BDE8F00370472DE9F00391E8F80395
:10248000B2E802105B1A74EB0C04B2E802108D4142
:1024900076EB0C0692E806108F4178EB020879EB98
:1024A0000C09894113EBD17354F1000455F1000577
:1024B0004E414F4158EB010859EB010980E8F80300
:1024C000BDE8F003704700BF2DE9F04F07EE900A1A
:1024D000FEF796FE5AEC359AB9EB05097AEB060A37
:1024E000B84171EB080172F1000273F1000374F15D
:1024F00000046BEB0B0B491972417B4154EB080450
:102500004BF1000557EC146A15EE108ABEEB0E0E67
:1025100059EB02095AEB030A604169415EF1000E72
:1025200096419F4178EB040879EB05097AF1000A9E
:1025300070F1000B71F1000C6EF1010E16EBDE76FE
:1025400057F1000758F1000859EB0E095AEB0E0A33
:102550005BEB0E0B5CEB0E0C17EE900A80E8C01FD5
:10256000BDE8F08F2DE9F04F07EE900AFEF7E2FE8E
:10257000B0E700BF2DE9F00791E8F807B2E80210D4
:102580005B1854EB0C04B2E802104D4156EB0C06FC
:10259000B2E802104F4158EB0C08B2E8021059EBB8
:1025A00001095AEB0C0A8941B3F1FF3374F1FF348E
:1025B00075F1FF3576F1000677F1000778F1000834
:1025C00079F101097AF1FF3A51F100015B184C41B0
:1025D0004D4156F1000657F1000758F1000859EB3C
:1025E000D1795AEB010A80E8F807BDE8F007704797
:1025F0002DE9F00791E8F807B2E802105B1A74EBD6
:102600000C04B2E802108D4176EB0C06B2E8021021
:102610008F4178EB0C08B2E8021079EB01097AEBF4
:102620000C0A89415B184C414D4156F1000657F1A7
:10263000000758F1000859EBD1795AEB010A80E8FC
:10264000F807BDE8F007704718EB040859EB0509D7
:102650005AEB060A5BEB070B5FF0000C4CF1000C29
:1026600018EB050859EB06095AEB070A5BEB070B59
:1026700050EB0C005FF0000C51EB0C0152EB0C0224
:1026800063414CF1000CB8EB070879F100097AF1CD
:10269000000A7BEB040BA841B141A241B3416CF1AC
:1026A000000CBBEB050BB041B941AA41BB416CF139
:1026B000000C4CF001068CF0020718EB060859EBF1
:1026C0006C095AEB6C0A7BEB6C0B70EB6C0471EBD6
:1026D0006C0572EB670653EB6C076CEB6C0C18EB3C
:1026E0000C0059EB0C015AEB0C025BF1000354F1A6
:1026F000000455F1000556EBDC7657EB0C077047EC
:102700002DE9F04F07EE900AFEF744FF59EC168AC8
:1027100017EE10AAFFF798FF59EC148A5BEC15AA84
:10272000FFF792FF17EE908A88E8FF00BDE8F08F70
:102730002DE9F04F07EE900AFEF7F2FF59EC168AEA
:1027400017EE10AAFFF780FF59EC148A5BEC15AA6C
:10275000FFF77AFF17EE908A88E8FF00BDE8F08F58
:102760002DE9F04FB1E8C003B2E83804F61867412C
:1027700058EB050859EB0A092DE9C003B1E8C0037D
:10278000B2E838045E41674158EB050859EB0A0985
:1027900091E8005C3CCA5AEB020A5BEB030B5CEB72
:1027A000040C5EEB050E89413CBCB2F1FF3273F1C3
:1027B000000374F1000475F1FF3556F1010677F15D
:1027C000FF3778F1FF3879F1FF397AF1FF3A7BF181
:1027D000FF3B7CF1FF3C7EF1FF3E51F100015218BE
:1027E00053F1000354F100044D4156EB41064F41B3
:1027F00058EB010859EB01095AEB010A5BEB010B9D
:102800005CEB010C5EEB010E80E8FC5FBDE8F08F35
:102810002DE9F04FB1E8C003B2E83804F61AA74139
:1028200078EB050879EB0A092DE9C003B1E8C0038C
:10283000B2E838049E41A74178EB050879EB0A0914
:1028400091E8005C3CCA7AEB020A7BEB030B7CEB61
:10285000040C7EEB050E89413CBC521853F1000379
:1028600054F100044D4156EB41064F4158EB01082D
:1028700059EB01095AEB010A5BEB010B5CEB010C14
:102880005EEB010E80E8FC5FBDE8F08F80197941B6
:1028900052EB080253EB090354EB0A0455EB0B050A
:1028A0004CF1000C9B197C4155EB08054CF1000CD8
:1028B000A4197D414CF1000C891BBA4173EB08034C
:1028C00074EB090475EB0A056CF1000CDDE90C678B
:1028D00016EB0C064FEAEC7C57EB0C074CF1000CA6
:1028E00016EB080657EB09074CF1000C16EB09062E
:1028F00057EB0A074CF1000CB6EB0B06DDF818801D
:1029000077EB08076CF1000CDDE90E8918EB0C0879
:102910004FEAEC7C59EB0C094CF1000C18EB0A085F
:1029200059EB0B09DDF818A04CEB0A0C18EB0B085F
:1029300059EB0A094CF1000CDDE910AB1AEB0C0A5B
:102940005BF1000B704700BF2DE9F14F98B068466E
:10295000FFF77EF806A83FC84FF0000CCDF818C06E
:102960004FF0010CFFF792FF0DF1300C8CE83F00A7
:102970004FF0000C4CF1000C9DE83F00CDF818C062
:10298000FFF784FF6CEB0C0C10EB0C0051F1000115
:1029900052F1000253EB0C0354EB4C0455EB0C05C5
:1029A00056EB0C0657EB0C0758EB0C0859EB0C09CF
:1029B0005AEB0C0A5BEB0C0B18B05DF804CB8CE8FF
:1029C000FF0FBDE8F08F00BF2DE9F14F98B06846CA
:1029D000FFF71CFABEE700BF2DE9F04F90E8F00FBB
:1029E00000F140004FF0040E59E0F0B4826BC36B6D
:1029F00004680525242687593C444FEA724787EA34
:102A0000F24787EA92273C4442684FEAF21787EA86
:102A1000B24787EAD2073C4440F8044B032D08BF75
:102A20006FF01B0687593A444FEA734787EAF3472A
:102A300087EA93273A4443684FEAF31787EAB34794
:102A400087EAD3073A4440F8042B87593B444FEABE
:102A5000744787EAF44787EA94273B4444684FEA7F
:102A6000F41787EAB44787EAD4073B4440F8043BAD
:102A7000013DC0D1A0F13C00076A3C444FEA7247D7
:102A800087EAF24787EA92273C4402684FEAF21746
:102A900087EAB24787EAD2073C44C463F0BC4FF0F0
:102AA000020288EA781C8CEAF84C0BEBBC1C8AEA20
:102AB000090303EA080383EA0A039C4450F8043B31
:102AC0009C4451F8043B9C44674444EA050B0BEAE0
:102AD000060B04EA05034BEA030BE34484EAF42300
:102AE00083EA34530BEBB30B87EA771C8CEAF74C81
:102AF0000AEBBC1C89EA080303EA070383EA09031B
:102B00009C4450F8043B9C4451F8043B9C4466446C
:102B10004BEA040A0AEA050A0BEA04034AEA030A32
:102B2000E2448BEAFB2383EA3B530AEBB30A86EACF
:102B3000761C8CEAF64C09EBBC1C88EA070303EA16
:102B4000060383EA08039C4450F8043B9C4451F874
:102B5000043B9C4465444AEA0B0909EA04090AEA71
:102B60000B0349EA0309E1448AEAFA2383EA3A5368
:102B700009EBB30985EA751C8CEAF54C08EBBC1C23
:102B800087EA060303EA050383EA07039C4450F837
:102B9000043B9C4451F8043B9C44644449EA0A08C1
:102BA00008EA0B0809EA0A0348EA0308E04489EA4C
:102BB000F92383EA395308EBB30884EA741C8CEADE
:102BC000F44C07EBBC1C86EA050303EA040383EA22
:102BD00006039C4450F8043B9C4451F8043B9C443D
:102BE000E34448EA090707EA0A0708EA090347EA4B
:102BF0000307674488EAF82383EA385307EBB307EF
:102C00008BEA7B1C8CEAFB4C06EBBC1C85EA0403BC
:102C100003EA0B0383EA05039C4450F8043B9C44FD
:102C200051F8043B9C44E24447EA080606EA0906D8
:102C300007EA080346EA0306664487EAF72383EABD
:102C4000375306EBB3068AEA7A1C8CEAFA4C05EB9A
:102C5000BC1C84EA0B0303EA0A0383EA04039C44D2
:102C600050F8043B9C4451F8043B9C44E14446EA40
:102C7000070505EA080506EA070345EA0305654472
:102C800086EAF62383EA365305EBB30589EA791C15
:102C90008CEAF94C04EBBC1C8BEA0A0303EA090337
:102CA00083EA0B039C4450F8043B9C4451F8043BDA
:102CB0009C44E04445EA060404EA070405EA0603E6
:102CC00044EA0304644485EAF52383EA355304EBBC
:102CD000B304013A7FF4E5AEA0F14000BEF1010E6D
:102CE0007FF483AEA0F1400C9CE80F000019491955
:102CF0009219DB19ACE80F009CE80F0040444944EE
:102D000052445B44ACE80F00BDE8F08F2DE9F0477A
:102D100086468C460846089E154674461946002B82
:102D200040F0C1808542B2FA82F245D94AB1C2F17F
:102D3000200300FA02FC954094402EFA03F343EA84
:102D40000C0C4FEA154EA8B2230CBCFBFEF80EFB90
:102D500018CC08FB00F943EA0C43994528D9EB1835
:102D600008F1FF3704D2994502D9A8F102072B4494
:102D7000A3EB0903A4B2B3FBFEFC0EFB1C330CFB5C
:102D800000F044EA0344A04214D92C190CF1FF339B
:102D900004D2A04202D9ACF102032C44241A43EA23
:102DA00007401EB1D440002334607360BDE8F08753
:102DB0004746DDE76346F1E792BB431B01214FEA3B
:102DC000154EAFB2200CB3FBFEFC0EFB1C330CFB0C
:102DD00007F840EA0343984561D9EB180CF1FF303E
:102DE00004D2984502D9ACF102002B44A3EB0803AE
:102DF000A4B2B3FBFEFC0EFB1C330CFB07F744EA4A
:102E00000344A7424DD92C190CF1FF3304D2A74239
:102E100002D9ACF102032C44E41B43EA0040C0E7B2
:102E2000C2F120039540944020FA03F12EFA03F3F7
:102E30004FEA154E9040AFB20343B1FBFEFC0EFBD0
:102E40001C10190C0CFB07F841EA0041884522D9F7
:102E500069180CF1FF3004D2884502D9ACF10200A8
:102E60002944A1EB08019BB2B1FBFEFC0EFB1C1137
:102E70000CFB07F743EA01439F420ED9EB180CF114
:102E8000FF3104D29F4202D9ACF102012B44DB1B7B
:102E900041EA004193E76046E3E76146F7E76046B1
:102EA000A4E76346B8E7834206D916B9002108466D
:102EB0007CE7C6E900E0F9E7B3FA83F78FB983420C
:102EC00001D3724508D8BEEB020460EB0303012076
:102ED0009C461EB9002169E73846FAE7C6E9004C6E
:102EE000F8E7C7F1200CBB400EFA07F522FA0CF404
:102EF0002EFA0CF1BA401C4320FA0CF3B8404FEA0A
:102F0000144901431FFA84FEB3FBF9F809FB18309A
:102F10000B0C08FB0EFA43EA00439A4540D9E3182C
:102F200008F1FF3004D29A4502D9A8F102002344E7
:102F3000A3EB0A0389B2B3FBF9F809FB183308FBCA
:102F40000EFE41EA03418E452CD9611808F1FF338A
:102F500004D28E4502D9A8F10203214443EA00407D
:102F6000A1EB0E01A0FB02984145CE46434602D399
:102F700006D14D4504D20138B9EB020E68EB0403CB
:102F8000002EA7D0B5EB0E0261EB030101FA0CFC99
:102F900022FA07F3F9404CEA0303C6E9003199E746
:102FA0004046C5E74346D9E710F8012B11F8013B2D
:102FB000012A28BF9A42F7D0D01A7047034613F867
:102FC000012B002AFBD1181A0138704700000000BD
:102FD0002DE9F04F2DED028B083085B00E4691465D
:102FE000DDF850807CF03EFE0446002800F09E8014
:102FF0006F4600259FED508B4FF0010B41F2A45A14
:1030000010AB0FCB87E80F004D4BC4E9035523608D
:10301000C4E9055503F12C024833A360494B6260B3
:1030200004F1480C0FCB84ED0E8BC4E90755C4E9BD
:103030000C5584F8245084F840508CE80F00424B23
:1030400084F858B0A4F85AA0E565236604F1780323
:10305000C4E91E3304F1A003C4E928333B4B10221A
:10306000C4F8D0302946C4E91955C4E9355584F867
:103070006C506467C4F89850C4F8C050C4F8DC5071
:1030800004F1E00089F072F984F8F0B0A4F8F2A03D
:10309000C4F8F45004F1F8007DF0E4FA4AF6C8737D
:1030A000C82284ED428B84ED448BC4E9462304F5A9
:1030B0009873C4E94C3384F80051A4F80451C4F85F
:1030C000285184F82C51C4F850513368E360736878
:1030D0002361B3686361F368A3613369E361736972
:1030E0002362337E84F824302BB1D6E9070104F142
:1030F000280383E80300304666F079FCB0B9B9F1E3
:10310000000F13D0B8F1000F10D003CF3B78C4F8F4
:10311000309084F84030012384F8283104F108030A
:10312000A063E163C4F8C880C4F8DC30204605B071
:10313000BDEC028BBDE8F08F000000000000000035
:10314000481C0A00008201206CFA0900D0FA09002C
:103150002DE9F04F824616461C4600259FB003918C
:10316000307810B9284600F085BD731C25280693D9
:1031700006D00399D0470028C0F27C8501351BE2B8
:103180001822002110A889F0F1F87378252B00F09F
:10319000BA80002398469E469C461846711C0F46EE
:1031A00011F8012B2B2A00F0DD8000F2D480202AB8
:1031B00000F0DB80232A00F0DB802BB19DF8483043
:1031C00043F040038DF84830B8F1000F05D09DF86A
:1031D000483043F020038DF84830BEF1000F05D091
:1031E0009DF8483043F010038DF84830BCF1000FD3
:1031F00005D09DF8483043F008038DF8483028B1D9
:103200009DF8483043F004038DF848309DF848306D
:1032100003F04401442903D16FF386138DF848303D
:103220009DF848302A2A43F080030E978DF84830E5
:1032300040F0A3809DF8493043F001038DF84930F8
:103240007B1C1A782E2A0CBF012100219DF84920F1
:1032500061F341028DF849200CD15A1C0E925A7824
:103260002A2A40F09A809DF84920023342F0040255
:103270008DF849201A786C2A00F0BB8000F29D80FE
:10328000682A00F0A3806A2A00F0BC804C2A00F073
:10329000C18013F8012B782A06938DF84B2000F299
:1032A00001816D2A00F2C380692A00F2FB80572A4F
:1032B00000F2DA80412A04D0A2F14503022B00F289
:1032C000F18004219DF84A3002F0DF02A2F14107AB
:1032D00061F302037A429DF849107A4162F3C71103
:1032E0000A068DF84A308DF84910CBB200F11981E9
:1032F00003F07802182A40F003816FF3C6038DF8BB
:1033000049300023F2E0B21C06928DF84B309DF854
:103310004930D90740F1078154F8042B002A049260
:1033200008DA9DF8482042F004028DF84820049AFB
:10333000524204925A0740F1FE8054F8047B002F59
:1033400080F2FD809DF849306FF341038DF84930DC
:103350004FF0FF37F3E02D2A0DD0302A7FF42DAF48
:1033600001231CE74FF0010C19E74FF0010E16E79F
:103370004FF0010813E7012011E70EA80FF0F6FA4D
:103380000E9BBB423FF45DAF9DF848201390C00FE9
:1033900060F341028DF8482053E70EA80FF0E6FADB
:1033A0009DF848301490C3F3400242EAD07262F3B1
:1033B00041038DF848300E9B5CE7742A26D07A2AA8
:1033C0007FF467AF06219DF849200CE05A78682AFF
:1033D0009DF8492006D1012161F3C6028DF84920EC
:1033E000023356E7022161F3C6028DF8492001330A
:1033F0004FE75A786C2A9DF8492001D10421EBE768
:103400000321F0E705219DF84920ECE707219DF80D
:103410004920E8E7BDF8482022F4F04222F00202F9
:1034200042F4804242F00202ADF84820DFE76E3AF3
:10343000D3B201229A4040F282431A429DF84930A9
:1034400037D112F0240F5FD1D1072BD503219DF87E
:103450004A2003F07803A3F1400061F302024342E3
:103460008DF84A20434141E00120A2F15801C9B240
:1034700000FA01F111F4624F7FF423AF40F601032B
:1034800019429DF849301AD111F4043F0AD09DF831
:103490004A2060F3020203F07803402B8DF84A20A3
:1034A0007FF42FAF9DF8483043F001038DF848308A
:1034B00027E702219DF84A2061F30202EBE7022090
:1034C0009DF84A1003F0780360F30201402B8DF859
:1034D0004A1002BF9DF8481041F001018DF84810D4
:1034E000632A7FF40EAF003B18BF01239DF84820EC
:1034F000C2F340010B4363F341028DF8482006E715
:1035000013F0380FCED1FCE603219DF84A2013F0CA
:10351000780F61F3020214BF012300238DF84A20C3
:10352000E4E70123E2E79DF94820002AACBF4FF011
:10353000FF32139AFDE69F077FF50AAF149F002321
:103540009DF84A20CDE9133302F00703042B9DF8C0
:10355000493007D1980705D49DF949100029ACBF1F
:1035600006270D2702F00702012AC3F3C30333D154
:10357000DA1E042A04D8DFE802F0214646212100A1
:103580002268012B4FEAE271CDE910211CD19DF98F
:103590004020D117CDE9102104349DF8482091072F
:1035A000079250D032465046069B03996DF0B6FB09
:1035B0000028C0F25F830544069ED1E554F8042B31
:1035C000D117CDE91021E8E7022BE5D111B242F382
:1035D000C032CDE91012DFE7022A24D1DA1E042A14
:1035E00004D8DFE802F0181010181800012B4FF073
:1035F000000154F8042B14D0022BCDE91021CCD1BA
:1036000092B21092C9E7073424F00704F4E80201EB
:10361000CDE91001C1E754F8042B10920022119259
:10362000BBE7D2B2CDE7042A08D1073424F007045F
:10363000D4E900010834CDE91001AEE7032AACD18A
:1036400054F8042BDDE79DF84BB0BBF1780FB3D8ED
:10365000BBF1570F49D8BBF1250F00F09180BBF1AA
:10366000240FA9D9BBF1410F03D0ABF14503022BC5
:10367000A2D8DDE91013002BC0F23781079A160794
:1036800000F13681C2F300194FEA4919C3F30A5019
:10369000C3F31303002840F02E8151EA030614BF40
:1036A00001260026DB0243EA5153C902BBF1460F53
:1036B00040EA010E43EAE07C08BF4FF0660B5EEA89
:1036C0000C0CCDE90C1300F09C81002E40F04A81D7
:1036D0000D9BA0F2FE3843F000430D930020DDE97E
:1036E0000C1306464FF0050C56E1ABF158012029AA
:1036F0003FF662AF01A050F821F000BF893800000A
:10370000B9350000B9350000B9350000B935000001
:10371000B9350000B9350000B9350000B9350000F1
:1037200073360000B93500000D3800002138000064
:10373000733600007336000073360000B9350000A0
:1037400021380000B9350000B9350000B935000056
:10375000B9350000C3380000893800008F380000F8
:10376000B9350000B935000087370000B9350000D1
:1037700089380000B9350000B935000089380000EB
:1037800058460399F6E4002F109E3BDB394630463D
:1037900088F0F3FE002E3FF40FAF4FF0000937180A
:1037A000BB1B9DF84A2012F01001059100F05782D2
:1037B000023312F04002DDF84C80089218BF149AD0
:1037C000434418BF9B18049ACDF81C80002A40F38C
:1037D0006182D31A04939DF848305807C3F3800BD5
:1037E00000F15882590640F14882B9F1000F07D024
:1037F00048460399D0470028C0F23C82D94601359B
:1038000030233BE23046FFF7D9FBC6E7109B4FF071
:1038100000098DF85C300DF15D07012317AEC0E79C
:10382000079B1A0754BFC3F300194FF02B09DDE9BA
:10383000102358BF4FEA4919002B06DA4FF02D0923
:10384000524263EB4303CDE91023DDE910010DF192
:103850007503009312AA17AB0FF09EF80646002FCF
:103860000CDB9DF848200DF175039B1B6FF386124E
:103870009F428DF8482001D9FB1A1393002E3FF484
:103880009BAE0DF175075BE04FF00009DDE7109886
:10389000002800F0DF810DF175030093002117ABC4
:1038A00012AA0FF079F8BDF84A30064603F0EF038C
:1038B00043F4F04343F010034FF00009ADF84A30F1
:1038C000CDE7109A072B3FF677AEDFE803F00C0444
:1038D000060C08080C0C15706EE615806CE6EB17EC
:1038E000C2E9005368E6156066E64FF02D09CDE6A3
:1038F0004FF02B09CAE640F2FF76B0422FD1A04824
:103900000BF10102D2B2825C0B4302F003021ED122
:10391000012A0BBF492369234E216E210CBF462289
:1039200066228DF85C309DF848308DF85D106FF39D
:1039300086138DF85E208DF848300DF15F0717AEC5
:10394000BB1BB9F1000F3FF42CAF013329E7012A6B
:1039500015BF6E234E23612141211A46E1E700265F
:10396000A0E6013849185B41002BFADACDE90C13C7
:10397000AEE6490841EAC3715B08B3F1333F404604
:1039800008F10108F5D200F1020801200CFB03FE4A
:10399000A1FB0C13013E734418F1020FE9DB08B1DF
:1039A000CDE90C13DDE90C31B8F1000F2CDCC8F1C6
:1039B0000400A0F1200C08F11C08C34001FA08F82B
:1039C00021FA0CFCC1400BF0DF0043EA0803472852
:1039D00043EA0C0338D1F01C01DBB7422ADAABF121
:1039E0000202002F5FFA82FB7BDD9DF84800013F59
:1039F000820676D43A1E18BF0122059207F101080B
:103A00002CE04FF0000869E6023341F100010CA8F8
:103A100008F1FF380136CDE90C316DF050F9DDE9E0
:103A20000C31DB184941002908F1FF38F9DACDE9FA
:103A30000C31B7E79DF84820BF1B90064FD43A1EC3
:103A400018BF0122059204E00022BBF1660F059227
:103A5000D4D117EB06084FF0660B44D4B8F1100F21
:103A6000A8BF4FF010089FED447B10208DED0E7B1A
:103A70000B90DDE90E02B8F1000F37D1C01842EB10
:103A80000103B3F1805F41D2CDE90C03079BBBF189
:103A9000660F03F0200340F0BC80002E41DC302193
:103AA0008DF85C10002B6DD1002F40F3B4812E23D4
:103AB0008DF85D3086B17342BB42A8BF3B46002BF8
:103AC0001393A7EB0307D4BF002301239DF84A10EB
:103AD00063F345118DF84A100DF15E0839E00022BC
:103AE000B0E7002289E74FF00008BCE7400840EA51
:103AF000C2705208CDE90E020EA8CDE9083108F1D6
:103B0000FF386DF0DCF8DDE90831B2E7400840EA43
:103B1000C3705B08CDE90C030CA86DF0D0F801363A
:103B2000B4E70DF15C080B99002909DD0BA90CA87D
:103B300007936DF0DCF8013E079B08F8010BF2D10A
:103B400013969BB9002F40F364812E2108F8011BC6
:103B50000026002F1FDD0B9B002B1CDD0BA90CA8E2
:103B60006DF0C5F8013F08F8010BF2E72E2308F8C5
:103B7000013BEDE7AFF3008000000000000000080B
:103B800027670B002E238DF85D30002EA4D0002F68
:103B900091DC0DF15E08059B002B4ED11497474632
:103BA0000BF0DF03452B23D1002EBABF76422D2325
:103BB0002B23632EC8BF64217B70C4BFB6FBF1F317
:103BC00001FB13664FF00A01C8BF03F13000B6FBDA
:103BD000F1F3D2BFBA1CFA1CB87087F800B01746D0
:103BE00003F1300001FB1363303307F8020B53700D
:103BF000139B002B2CDC149B002BD4BF0023012330
:103C00009DF84A2063F3861200238DF84A203B700A
:103C100095E60BA90CA807936DF069F8079B30286F
:103C20008DF85C0018BF06F1FF3613B9002F40F382
:103C3000F2802E238DF85D304EE7474617F8013CA1
:103C400008F1FF38302BF8D02E2B08BF4746A7E7E6
:103C50000123D5E7714F814605237E1FA1E511079A
:103C600048BF0133A5E5184609930399D0470028BA
:103C7000099B05DA1FB0BDE8F08F2023DDF810B0F6
:103C80005A46002A0BF1FF3BEDDC049BCDF810B047
:103C90002B449D1AB9F1000F05D048460399D0472F
:103CA0000028E7DB0135089B002B77D09DF94930D0
:103CB000002B28DB3346DFF8689118789B4619F80B
:103CC0000020013352073FD49DF84A30AE1B9806BE
:103CD0005E4407D44246002A08F1FF383BDC079BCC
:103CE00033449E1A9BF800002E280AD10399D0472E
:103CF0000028BFDBB8F1000F06F1010631DC0BF143
:103D0000010B5D4638E0B14699F80000C8467028BE
:103D100009F1010913D1AE1B149D46443544AB1B78
:103D2000002B33DC3B464246504603996CF0F6FFCD
:103D300000289FDB3044049E0546064464E0039956
:103D4000D0470028E0DA95E705930399D04700288B
:103D5000059BB2DA8EE730200399D0470028B9DA04
:103D600088E730200399D04708F1FF38C0E703996E
:103D7000D0470028FFF67EAF2878A84619F8003013
:103D800001355907F3D4A6EB0B06C5E7302003999C
:103D9000D0470028FFF66EAF0136C0E79DF84A30E5
:103DA000DA0601D41B0706D530200399D047002836
:103DB000FFF660AF0135059B3BB103999DF84B00C1
:103DC000D0470028FFF656AF0135A84406E0302062
:103DD0000399D0470028FFF64DAF0135A8EB050346
:103DE000002BF4DC3B463246504603996CF096FFBC
:103DF0000028FFF63FAF28449DE720200399D047D5
:103E00000028FFF637AF0135731B002BF5DCFFF7F9
:103E1000D3BB1E46BFE60DF15D08BCE66EBE0A00D0
:103E200028670B00000000002DE9F04F2DED028BFC
:103E30000F4600269BB0039019461046CDE9062395
:103E400074F0A8FDBB4634469FED738BCDE90401A9
:103E50000DF12C08DDF80C90CDF820800296BBF116
:103E6000000F23D1002C66D0DDE90632B2F1FF3F0E
:103E700008BFB3F1FF3F17BF4FF47A724FF0FF3323
:103E8000A3FB0232DB0B18BF43EA4243CDE90073C8
:103E90004FF482723146039B02986DF022FD044676
:103EA00020461BB0BDEC028BBDE8F08FD9F80000B6
:103EB000002820DB0AAA09A90DF012FF0546D0B19F
:103EC0004FF0FF324FF0FF330A986DF036FD1AAB1A
:103ED000019308AB00934FF481724B462946099831
:103EE0006DF0FFFC10F1780F824609D10A988DED34
:103EF000068B6DF024FD09F108090BF1FF3BAEE7DD
:103F00001AF1120F0A980BD1029B1BB16DF017FD2D
:103F10000124F0E7099B2E4602936DF010FDF7E7B0
:103F20006DF00DFDBAF1000FE5DA6FF087FACAF116
:103F30000003036020E006AADDE90401DFF8E4A045
:103F40006DF0DEFC02940899DDE90623A1EB08017F
:103F500089100AFB01F1404627F0DEFD00F10B035A
:103F60000B2B054604D82E4C1C4114F0010406D03E
:103F70006FF064FA6D4205604FF0FF3490E7B94688
:103F8000A346039DCDF82080B9F1000F0ED1BBF1FF
:103F9000000F85D0002C83D1DDE9040106AA6DF065
:103FA000AFFCDDE906321343CDD179E72868029BE7
:103FB0000028EB8029DB0AAA09A90DF091FE06462C
:103FC00018B92023EB8001341FE04FF0FF324FF08F
:103FD000FF330A986DF0B1FC08AB314640F2031292
:103FE000009309982B466DF07CFC06460A986DF00C
:103FF000A6FC16F10B0F0CD01EB16FF01FFA734226
:1040000097E7B5F90630002BDDD1083509F1FF3906
:10401000BAE74FF0010BF8E70000000000000000D5
:104020007EF7FFFFCDCCCCCC2DE9F0472DED028BF8
:10403000072A044682B00AD86FF000FA16230360FC
:104040004FF0FF3002B0BDEC028BBDE8F087D1E944
:104050000067B7F1FF3F08BFB6F1FF3FECD056EA6B
:1040600007031AD06FEA060A9FED358B00F1200591
:104070004FF02003EFF3118883F31288BFF36F8FA3
:10408000284624F071FE50B92F4994222F486CF035
:10409000DBFE94212C486CF0D0FE0820D2E72846A5
:1040A00024F07EFED4E90C32A16BF843490404F1FC
:1040B000240905D5534572EB00000DD30B241FE0F6
:1040C000534572EB000007D38DED008B4A46414605
:1040D000284626F085FBCBE79B1942EB0702B2F19D
:1040E000FF3F08BF13F1020FC4E90C3203D104F102
:1040F000100074F038FD0021204627F0BFFD002499
:10410000484674F029FC48B14146284626F026F975
:10411000002CC2D06FF092F90B2390E7284624F0D0
:1041200031FE30B90849C22208486CF08DFEC22128
:10413000B0E788F31188BFF36F8FE9E7AFF3008032
:10414000FFFFFFFFFFFFFFFFAEBD0A00DBBD0A0060
:104150002DE9F0472DED028B072A82460F4682B0EB
:104160001AD99FED418B00F1200600F124094FF090
:104170002003EFF3118883F31288BFF36F8F30466B
:1041800024F0F2FD98B93A4994223A486CF05CFE6A
:10419000942137486CF051FE6FF050F916230360FC
:1041A0004FF0FF3002B0BDEC028BBDE8F087304627
:1041B00024F0F6FDDAE90C45DAF8383013F4804FD4
:1041C00005D054EA05020DD14FF00B0A26E054EA5F
:1041D000050207D18DED008B4A464146304626F058
:1041E000FFFAC4E79B0707D400220023CAE90C2387
:1041F000504674F0B8FC0AE0013C45F1FF35CAE9CD
:104200000C452C434FF001044FF00005F0D0002185
:104210000AF1100027F032FD4FF0000A484674F012
:104220009BFB50B14146304626F098F8BAF1000F9A
:1042300013D06FF003F90B23B1E7304624F0A2FD51
:1042400030B90B49C2220B486CF0FEFDC221A0E739
:1042500088F31188BFF36F8FE8E70820C7E90045AE
:10426000A0E700BFAFF30080FFFFFFFFFFFFFFFFEE
:10427000AEBD0A00DBBD0A002DE9F04705469946B0
:104280000024282386B088469246CDE9024371F087
:104290006FFE284602A972F0ABF80746002800F02E
:1042A000AF8083793A2B18D10423039928460494CC
:1042B000059371F0C3FE284604A972F099F818B16D
:1042C00090F90130A34205DB6FF01505284606B0D2
:1042D000BDE8F087284671F04BFEBB79112B58D012
:1042E000062B58D00020AB68002B4ED19FED487BA9
:1042F000022295F840308DED007B02FB03013A234A
:10430000A86904311BF0ACF8044600287BD095F86E
:104310004020E96B72F051F8061E31DBA36820469D
:10432000DB68636495F84820696C72F046F8061EF5
:1043300026DBA06895F848100C3019F0DDF8A0686D
:1043400050F80C3FE36395F8401019F0D5F895F854
:10435000483007F1180184F8403095F8403084F86F
:1043600048303B7EFF2B03D1A06919F0A3FE014624
:10437000204607F1080272F070F970B16FF0040680
:10438000204671F082FD3546A0E71A8A5B6810442A
:10439000AAE73020AAE73C20A8E74146524620463B
:1043A00072F0A8F801460028E8D1B8F1040F22D134
:1043B00099FA89F34246204604A9049371F0FDFF5F
:1043C0000646204671F085FD0246002ED8D12946CA
:1043D000204671F0EEFE05460028D1D1204671F04E
:1043E000C7FD3A21204672F080F9204670F0F9FDB1
:1043F0000028C5DB6AE70422204671F0C6FEDFE72D
:104400006FF0040562E76FF00B055FE7AFF3008024
:1044100000800000000000002DE9F0472DED028B28
:1044200006469FED358B4FF00009DFF8DC80DFF8A2
:10443000DCA082B04FF0FF334FF0FF3206F5AD60E5
:1044400024F0EAFF4368044643B92D4990222D48E1
:104450006CF0FAFC90212A486CF0EFFC1F78802F5A
:1044600006D927499D2227486CF0EEFC9D21F2E7F2
:10447000002339461A468DED008B30681BF002F898
:1044800061683A460131054671F097FF074610BB57
:10449000237C85F86130637C85F86230A27C95F8D6
:1044A000633062F3410385F86330D4E90201424688
:1044B0004B46FCF7E5F84FF47A735A43C5E9080117
:1044C000AA622946306870F0F7FD00280CDA452111
:1044D00050466DF04EF900236068636020F0DCFD0B
:1044E000284671F0D2FCA5E76068676020F0D4FD33
:1044F000A0E700BFAFF30080FFFFFFFFFFFFFFFF5C
:1045000099E70A00DBBD0A0040420F0003E80A00F9
:1045100010B52A21ADF5956D71487EF090FB08B17C
:1045200087F0BFFE029002A96D487EF030FB0028A4
:10453000F6D1029B2A2BF3D167A3D3E90023694864
:10454000CDE9AA23AAA908227EF044FB0028E7D1DE
:1045500000220023634808A9CDE908237EF027FB49
:104560000028DDD1DDE9080240F6FA035E499A42EF
:1045700008BF8842D4D101215C487EF055FB002859
:10458000CED18DF807000DF1070158487EF0EDFA05
:104590000028C5D19DF80730002BC1D050487EF0CF
:1045A00074FB0028BCD14E4803A97EF0F0FA40F21B
:1045B000012398420446B3D14D494E487EF053FB47
:1045C0000028ADD140224B4804AB0AA97EF018FB6D
:1045D0000028A5D1049B0E2BA2D10F2244490AA882
:1045E00087F07AFE00289BD1434942487EF03BFB8E
:1045F000002895D104AB40223E480AA97EF000FB7A
:10460000049B18438CD19DF82810002988D1394883
:104610007EF029FB002883D14022364805AB1AA939
:104620007EF0EEFAA0427FF47BAFF12233493448AA
:104630007EF0D0FA00287FF473AF4FF40072304858
:1046400006AB2AA932F0E2FC00287FF469AF069A93
:10465000F12A7FF465AF29492AA887F03DFE02467A
:1046600000287FF45DAF014625487EF0B3FA0028AC
:104670007FF456AF07AB4FF400722148AAA932F07D
:10468000C5FC40F2012398427FF44AAF15487EF002
:1046900004FB00283FF444AF14487EF0FEFA0028E3
:1046A0003FF43EAF16487EF0F8FA00287FF438AFAA
:1046B00032F0CAFC00287FF433AF0A487EF0EDFAEE
:1046C00000283FF42DAF09487EF0E7FA00287FF478
:1046D00027AF0DF5956D10BD316EE595FA08000018
:1046E000E1260B00BC270B00316EE595CA260B00B6
:1046F00048260B0005270B0047260B0056250B000C
:10470000A9270B00000000002DE9F04F2DED028BD2
:104710009946002300240025CDB08DF8C830499378
:104720008DF82831A24BCDE92E45CDE93045CDE9B4
:1047300034450C934FF6FF740123DFF88CA2064634
:1047400088461746CDF8D8A0ADF820410D93A2B306
:10475000054600F53E74A54206D10B2420464DB017
:10476000BDEC028BBDE8F08F284664F089FE08B1ED
:104770009835F0E79FED8C8BBDF864318DF8C880DB
:10478000ADF820318B4B4FF4C8710E93002309A86C
:10479000CDE909330F93CDF870A00B9367F014FEA9
:1047A000099C2CBB0B240BA866F04AFB0AA866F0F8
:1047B00047FB09A866F044FBD0E780F092FC044672
:1047C00008B9AC24CAE706F53E75284665F0E6F957
:1047D000B4F868308DF8C880ADF8203194ED028BC4
:1047E0006A342021204687F0C8FECDE90C40C9E795
:1047F0004FF4C8710AA867F0E7FDDDF828A0BAF108
:10480000000FCFD04FF4C8710BA867F0DDFD0B9AF5
:10481000002AC7D04FF4C8734146CDE91332304661
:1048200010AA1094CDE9113A159380F0D9FC0446F2
:104830000028B8D14146304612AA80F0B3FC0446A5
:104840000028B0D14146304614AA80F065FC0446E9
:104850000028A8D1109B0DF1B80A1693119B0DF1F9
:10486000700B1793129B8DED008B1893139BCDE962
:1048700005AB1993149B1AAA1A93159B18A91B939D
:1048800036AB079330AB049334AB03930EAB029378
:1048900016A834F0E1FF0446002884D10BA866F086
:1048A000CFFA0AA866F0CCFA09A866F0C9FAB9F1FD
:1048B000000F13D1D6F89403002857D003689B68E3
:1048C00098470346D6F89403002B47D003685A460E
:1048D00041465B699847044690B13FE7D9F80030FC
:1048E00048465B699847036859465B6A984708B928
:1048F000C52433E79DF86031CDF824918DF8283137
:104900005146284680F0F0FE044600287FF426AF8A
:1049100028460CA980F0B2FB06F569742B7C3FB3E6
:1049200002211120244A7BF02FFAD5E90012AB694D
:10493000CDE901210093EB69022111201F4A7BF090
:1049400023FA20460F9937F097F9034630BB96F8C3
:10495000B233013386F8B2330024FFE603684146E0
:10496000DB6898470028CBD11024F7E60324F5E64E
:10497000D5E900121120CDE900210221104A7BF077
:1049800003FA20460F9937F077F903460028E3D061
:10499000012111200B4A7BF0F7F9DDE701211120FD
:1049A000084A7BF0F1F9D2E70000000000000000A7
:1049B00014910B00C4290A00B6340B00D6340B0046
:1049C00015350B0048350B0054250A000000000087
:1049D0002DE9F0478AB00DF10D030193152306462A
:1049E00000934FF48072002308460C467AF0D3FC03
:1049F000D8B9B37B01220093204600237AF052FC01
:104A000098B9F37B02220093204600237AF04AFCF7
:104A100058B90DF10E03019316230322009320468B
:104A200000237AF0B8FC054610B10AB0BDE8F08763
:104A30004FF0100906F140070DF11808102200216F
:104A4000404687F093FC0DF10F03019315234FF4BB
:104A500080720093204600237AF09DFC0028E4D168
:104A6000F27BEBB29A4250D917ED0C7BC44637F873
:104A700028ACA7F12603A7F1160E624618685968FC
:104A8000083303C273459446F7D18DED007B0422B1
:104A9000002320467AF0E1FB0028C6D1052200233E
:104AA0002046CDF800A07AF0FDFB0028BDD140469D
:104AB000494606228DE8030000232046CDE90489FB
:104AC0007AF026FD0028B0D120469DF90F107AF02B
:104AD00090FC013530370028A7D1032DAED12046F8
:104AE0009DF90E107AF085FC00289ED1F3880722EC
:104AF0000093204600237AF0D5FB002895D120466C
:104B00009DF90D107AF075FC8FE782469FED027BD0
:104B1000BBE700BFAFF30080000000000000000012
:104B20002DE9F0472DED028B9EB004461EF044F9AE
:104B300006AE804600F1004911A890F013F92C222E
:104B40000021304687F012FC04F1340104A88AF0F9
:104B5000E9FC4F469FED2A8B08F6B83A049D75B9DB
:104B6000A7EB0909B9F1000F04DA394604F138005E
:104B700046F0A6FC1EB0BDEC028BBDE8F0872946CE
:104B800011A84BF063FA149BA8EB0303002B30DB56
:104B90009DF87630012B0CD91C238DED008B294616
:104BA0002046029311AA90F0C5F804A88AF099FC57
:104BB000D4E701338DF87630E98B34233439284635
:104BC00011AA89B2CDF850A046F094F90DF1280C45
:104BD00019AB0FCB8CE80F00BDF87430ADF83A304C
:104BE00015AB0FCB86E80F0032462946204690F0E1
:104BF0006FF8149BFA1A17EA220738BF1F46D4E74A
:104C0000000000000000000008B5024884F07EFEAD
:104C1000002008BD1CE5012038B50C46154600F003
:104C200023F82A1D611E044884F036FE002814BFB4
:104C30006FF00700002038BD1CE5012013B5064BBE
:104C40001446186828B113460091044A08216DF0F3
:104C50002DFC204602B010BDE83C012083570A001D
:104C6000004870471CFA0900014B1860704700BFEC
:104C7000E83C01204FF4FA71014864F0ACBB00BF7E
:104C8000E016002030B5002589B0044603A90120B4
:104C90008DF80C5067F0DCFF9DF80C302BB901202B
:104CA000217867F0EBFF09B030BD49210B486CF06B
:104CB00060FD04F0ABFF05AB019304AB0093012151
:104CC0006378227804958DF8145065F0AAFF0028C7
:104CD000E9D1452102486CF04CFDE4E788570A0011
:104CE000AA570A00044805210378012B01D164F07A
:104CF000F0BA64F0D6BA00BFA817002010B50E4C69
:104D000094F89A332BB149210C48BDE810406CF05F
:104D100030BD0B4832F020FA024610B14921094853
:104D2000F3E74FF4617104F58B6065F0B5F810B1ED
:104D300045210548E9E710BD003C0020D4570A0092
:104D4000BCE3012025580A004D580A00034B0448D3
:104D500019784B1E5942594164F017BBA81700201F
:104D6000E01600200A4B1B7833B10A4B1B781BB1AD
:104D70000121094864F009BB084B1B7823B1642268
:104D80001146054864F010BB40F2B6323221F8E714
:104D9000A0FB01209FFB0120281700209EFB012083
:104DA00048F2090208B50388934226D048F20B0264
:104DB00093422CD190F90830012B18D1144B93F861
:104DC00080307BB1492113486CF0D3FC124832F09B
:104DD000D1F9003818BF0120104B1870BDE8084009
:104DE000FFF7C0BF4FF0020001F0CEFEEEE7013347
:104DF000ECD1074833F0B0FFE8E709487EF0F7F858
:104E0000084B187006487EF0AEF8074BE5E708BD82
:104E1000E242022078580A00BCE301209EFB0120F8
:104E2000A0A60020A0FB01209FFB012010B5044696
:104E3000024873F0DDFD0023637010BD7017002081
:104E400013B5044640F2E7304FF47A72002300EBCA
:104E5000C130490CFBF714FC02460B460021002030
:104E6000CDE90001034826F0A1FC0123637002B0E4
:104E700010BD00BF7017002070B505786DB942787D
:104E8000174C022A637809D13BB925782DB940F631
:104E9000B8312046FFF7D4FF257070BD002BFCD041
:104EA00026784EB92046FFF7C1FF49210D482670EC
:104EB000BDE870406CF05DBC012EEED129460A4879
:104EC00064F063FA2946094864F05FFAFFF74AFF85
:104ED0002046FFF7ABFF492105482570E8E700BFF2
:104EE000A1FB0120A2580A004816002098160020B5
:104EF000C3580A0038B5037A042B35D11B4D2C78E2
:104F00004CBB40F6B832492119486CF032FC2846B7
:104F100040F6B831FFF794FF0123214615482B7066
:104F200064F033FA2146144864F02FFA21461348FE
:104F300064F02BFA4FF4FA710E4864F04CFA4FF417
:104F4000FA710D4864F047FABDE838404FF4FA7141
:104F50000A4864F040BA012C06D100232B7008489F
:104F6000BDE8384002F09EBA38BD00BFA1FB012069
:104F7000E8580A002817002048160020981600203C
:104F8000001C002008B5014600220023054823F03C
:104F90003DFF28B1BDE80840492103486CF0E9BB5A
:104FA00008BD00BF080B00202C590A001FB50623BE
:104FB0008DF80830034B68460393FFF7E3FF05B015
:104FC0005DF804FB754C00001FB507238DF8083011
:104FD000034B68460393FFF7D5FF05B05DF804FB6C
:104FE0004D4D00007FB5012300EA01060D46B107D3
:104FF00004468DF8083008D540F20123ADF80030A2
:10500000104B68460393FFF7BDFF320708D540F207
:105010000323ADF800300C4B68460393FFF7B2FF53
:10502000EB070DD5002304F001048DF80030074B89
:10503000C4F1030468468DF801400393FFF7A2FF13
:1050400004B070BDE54C0000FD4C0000794E00003E
:105050001FB560B10022074B5A7004238DF8083049
:10506000436B68460093044B0393FFF78BFF05B037
:105070005DF804FBA1FB0120F54E00001FB50523E0
:105080008DF80830044B009068460393FFF77AFFD1
:1050900005B05DF804FB00BFE9910600C36803B1E9
:1050A0001847492101486CF064BB00BF5E590A00F3
:1050B00030B501290C46154689B003D0CB1E5C42A1
:1050C0005C4164007BF0E4FA074B8DF800408DF8FA
:1050D00001500193BDF8003001A9ADF808302EF061
:1050E0001FFB09B030BD00BF854C000038B5044639
:1050F0000D4603280CD8DFE800F002121B1E4921E0
:1051000010486CF036FB32220F48114664F04CF91F
:105110002A462146BDE838400C48FFF7C9BF49215F
:105120000B486CF026FB0121074864F02EF9EFE7ED
:1051300049210848E5E7492107486CF01AFB00219E
:10514000F2E700BF93590A00E0160020A1FB0120FE
:10515000AE590A00C9590A00E6590A002DE9F04182
:10516000002402259AB01D4B01211D4A0095CDE96E
:1051700002441C48019408F04DFC1B4A1B49194885
:105180006EF02EF903230495194DA02221461848EC
:1051900005932E4687F0EAF804AF022C0CD164F098
:1051A000CEF83168134801F0E1F8316D12481AB0B9
:1051B000BDE8F04101F0DAB857F8048B482200212D
:1051C00008A887F0D3F845F8508B482208A9A5F124
:1051D0004800013487F090F8DFE700BFC94F0000B6
:1051E000AD4F0000EC3C01208841012049DA00006D
:1051F00040160020481600209816002070B5C3689D
:1052000004461BB92B4B2C4AC3605A60636B53B9DD
:105210002A4BE1685A680AB1032070BD1A725960BE
:10522000DA601A826363A36BF3B9254DE6686B6895
:10523000002BF1D105F1140063F0DDFF05F11C0036
:1052400063F0D9FFEB6803B92B7295F824301D4841
:1052500023F0050385F8243063F0CDFF00236E6052
:105260002B7285F82430A563174B184EE168304641
:10527000236281F037FA236A3046336180F07FFB86
:10528000054608B12846C8E7E268E6610AB92F205A
:10529000C3E70F4B23615A6030F0A4FB0D4B6062F3
:1052A000A3620D4B022121200C4AA3617AF06CFD10
:1052B000E8E700BFE4010020E1420220D001002025
:1052C000943F0120A03F0120C8010020283D01207B
:1052D0001C3D0120CC010020243D0120035A0A007E
:1052E000F8B54921054656486CF043FA00210846B6
:1052F0002CF0D8FE044620B1452152486CF039FA12
:1053000026E0514E337883B1504832F075FE0446A2
:10531000B8B904214D4832F0B5F90446D0B12CF0AB
:10532000D5FE452102464A4810E0304631F0D8FD0E
:10533000041E0CBF012300233370E5D045214548EE
:10534000DCE72CF0C3FE4521024643486CF011FA1D
:105350002046F8BD63F0F3FF404801F001F8404EED
:105360002146404801F002F801213F4800F0FEFFCD
:1053700031783D484A1E5142514164F006F8FFF72A
:10538000F1FC3A481DF040FB044640B13848452145
:105390006CF0EFF92046BDE8F8407BF004BA354FD9
:1053A00002463549384673F017FB344930467D6371
:1053B00000F0A6F8324CD4E8AF3FDB0711D420460A
:1053C00086F049FF68B131F0DBF92E4B2E4A586068
:1053D0001A6018462D4A2E496EF002F8204686F0D3
:1053E00046FF28482DF054FF36F062FD34F052F8A5
:1053F0002848FFF703FF2749274802F0E3FA04464D
:105400000028A5D130F078FD03689B6F98474FF0D6
:10541000020001F009FD27F0EDFD204B00F50050E2
:105420002246C0F824361E491E487DF0E9FA1D4880
:1054300031F0E0FC044600288AD045211A485DE797
:105440002A5A0A003F5A0A0078950020A0A6002098
:10545000BF5A0A00625A0A008C5A0A007D500000A6
:10546000A817002028170020E0160020E54F0000B4
:10547000F75A0A007017002051500000ED5000004C
:10548000083D01200C3D0120F8280A008841012038
:10549000E791060078010020001C0020B4010020E4
:1054A000A14D000080950020155B0A001FB5FFF795
:1054B00017FF014680B91022684686F057FF074C57
:1054C0004FF0FF324FF0FF336946204623F02AFDAC
:1054D0006846FFF7E3FDF3E704B010BD080B0020BA
:1054E0001FB504238DF80830436B68460093034BC7
:1054F0000393FFF747FD05B05DF804FB0393060037
:1055000010B50022416004460249103073F064FA7D
:10551000646410BDE154000037B51C240B4601390A
:1055200004FB0100114600F59C7400F5A87054F8C6
:10553000045B844241F8045BF9D120880880A0789C
:105540008870107D0649074A002808BF0A460221D4
:1055500000921D20044A7AF017FC012003B030BDF0
:10556000E00C0B00445B0A004D5B0A002DE9F04F94
:1055700085B099460E9B90465A6804460A2A0F4603
:105580009DF840B04DD8149903294AD8182507F141
:10559000FF3A05FB0AF505F148060644196830464E
:1055A000039286F0A9FE0021039A149B54352544EA
:1055B000B15428469A00139986F09EFE1C210E9B3A
:1055C00001FB0A445A68149BC4E94E62C4F8443192
:1055D0000F9B154AC4F848319DF84430C4F8405137
:1055E00084F84D319DF84830012584F84E310F4B39
:1055F0001D20BBF1000F08BF134684F84CB184F89E
:105600004F5184F8508184F8515184F8529102210D
:105610000093074A3B467AF0B7FB284605B0BDE841
:10562000F08F0020FAE700BFE00C0B00445B0A009B
:10563000665B0A0037B51C464B1E132B0D4616D869
:1056400001F1290300EB03100FC884E80F00094A99
:105650002178094B1D20002908BF13460221009321
:10566000064A2B467AF090FB012003B030BD0020A3
:10567000FBE700BFE00C0B00445B0A007F5B0A0005
:105680002DE9F04F01F1FF3A1F461FFA8AF385B06A
:10569000132B04460E4690469DF83890109D43D833
:1056A0006B68802B40D8A3B100EB810BDBF84C0278
:1056B00030B103937AF07BFB0022039BCBF84C22A2
:1056C00018467AF070FBCBF84C02D5E9001286F050
:1056D00013FE9DF83C3004EB061181F8913281F8FD
:1056E000909206F1930354F823206B680125C1E9D9
:1056F000A5230E4A0E4B04EB0A14B9F1000F08BFA4
:1057000013461D2084F8AC5284F8AD8284F8AE5262
:1057100084F8AF7202210093064A33467AF034FBD4
:10572000284605B0BDE8F08F0020FAE7E00C0B003A
:10573000445B0A009E5B0A0038B50123164D002425
:105740002B700523214605F1100038222B726C6066
:1057500086F00CFE21462346483548191831F029B9
:10576000C0E903334361F8D14FF48C7200210B4838
:1057700086F0FCFD50220021094886F0F7FD4FF429
:10578000A0720021074886F0F1FDBDE83840064AC6
:10579000064901486DF024BEA8170020E01800203B
:1057A000F8190020481A00208841012019920600AB
:1057B00010B50648FFF77AFE044602464521044824
:1057C0006BF0D7FF201E18BF012010BDA1FB0120E8
:1057D000BD5B0A000B4607B528B1009001211D20D2
:1057E000024A7AF0D1FA03B05DF804FBD65B0A00F6
:1057F00040F20112416891420FD182686AB91B7868
:10580000012B02D0022B04D070470721034863F01C
:1058100048BD0721014863F05CBD7047A817002010
:105820000148FFF779BE00BFA817002030B49DF8EB
:1058300010009DF814409DF818500490CDE90545DE
:1058400030BC0148FFF792BEA81700200148FFF7BF
:10585000F1BE00BFA817002010B49DF804009DF809
:105860000840CDE9010402485DF8044BFFF708BF8A
:10587000A817002010B5054863F0DFFC044618B1F6
:105880000721024863F00DFD204610BDA817002037
:1058900010B5054863F0D1FC044618B10721024851
:1058A00063F017FD204610BDA817002010B5044670
:1058B00004F0ACF9214604F0CBF90021204667F052
:1058C00000FA1349FFF786FF0A21204667F028FAFD
:1058D0001049FFF77FFF0A21204667F041FA0E4981
:1058E000FFF778FF0021204667F05AFA0B49FFF7CF
:1058F00071FF0321204667F0D9FA0949FFF76AFFD3
:10590000BDE81040074B002219780748FFF7D0BBCD
:105910007CBB0A00F45B0A00045C0A00185C0A0005
:105920002D5C0A00A8170020A1FB01203F2908B523
:1059300050D81C2902D8032968D008BD1D39222956
:10594000FBD801A252F821F0F55900003B590000A4
:10595000E35900003B5900003B5900003B5900004F
:105960003B5900003B5900003B5900003B590000E7
:105970003B590000EF590000195A00001F5A00005F
:105980003B5900003B5900003B5900003B590000C7
:105990003B590000FB590000135A00003B5900001E
:1059A000015A00002B5A0000315A0000375A0000FB
:1059B0003B5900003B5900003B5900003B59000097
:1059C0003B590000E95900003B590000255A0000EE
:1059D000075A000040F201139942AED1FFF766FF6B
:1059E000ABE763F09DFCA8E763F09BFCA5E763F0E1
:1059F00099FCA2E763F097FC9FE763F095FC9CE7B6
:105A000063F093FC99E763F091FC96E763F08FFCF9
:105A100093E763F08DFC90E763F08BFC8DE763F018
:105A200089FC8AE763F087FC87E763F085FC84E7FD
:105A300063F083FC81E763F081FC7EE770B58B68DF
:105A40000646012B0D4614468CB024D0022B32D0D2
:105A5000002B3DD119461C2205A886F087FC214663
:105A600005A867F061FF044638B92946304605AA03
:105A700003F092FC00283CD104462946852230469A
:105A800073F07FFB234602211D201B4A0CB0BDE8AA
:105A900070407AF079B90023114605A8ADF81430AA
:105AA00067F08BFF04460028E7D12946304605AA57
:105AB00003F0FEFCDEE7114605A867F080FF044610
:105AC0000028DAD12946304605AA03F059FDD1E76E
:105AD000812273F056FBD5E9012391B2120C019299
